:09007D007FF47E0112000380F7FC
:0A005700EF1FAC0670011E4C600F95
:0D00610000750A02750BC7D50BFDD50AFA14
:03006E0080E72206
:030086008FA02226
:100003008E088F0975A0FEAF09AE0812005775A0C0
:10001300FDAF09AE0812005775A0FBAF09AE081279
:10002300005775A0F7AF09AE0812005775A0EFAFE0
:1000330009AE0812005775A0DFAF09AE08120057CA
:1000430075A0BFAF09AE0812005775A07FAF09AE08
:040053000802005748
:030000000200718A
:0C007100787FE4F6D8FD75810B02007D5D
:00000001FF
