:0A00BF00EF1FAC0670011E4C600F2D
:0D00C90000750902750AC7D50AFDD509FAB0
:0300D60080E7229E
:10006B008E0B8F0C75A0FEAF0CAE0B1200BF75A0E4
:10007B00FDAF0CAE0B1200BF75A0FBAF0CAE0B129D
:10008B0000BF75A0F7AF0CAE0B1200BF75A0EFAFA2
:10009B000CAE0B1200BF75A0DFAF0CAE0B1200BF86
:1000AB0075A0BFAF0CAE0B1200BF75A07FAF0CAE2F
:0400BB000B0200BF75
:10000300E4F50875A0FE20B12D7F0F7E001200BF1E
:1000130030B1FD7F0F7E001200BFE508C394074097
:10002300037508FF0508AF08A8077401088002C319
:1000330033D8FCF4F5A020B0CD7F0F7E001200BFB3
:1000430030B0FD7F0F7E001200BFE508D39400504F
:10005300037508081508AF08A8077401088002C3D0
:0800630033D8FCF4F5A0809EE7
:030000000200D922
:0C00D900787FE4F6D8FD75810C0200036E
:00000001FF
