:0A020600EF1FAC0670011E4C600FE4
:0D021000007515027516C7D516FDD515FA37
:03021D0080E72255
:100195008E178F1875A0FEAF18AE1712020675A040
:1001A500FDAF18AE1712020675A0FBAF18AE1712F9
:1001B500020675A0F7AF18AE1712020675A0EFAFCD
:1001C50018AE1712020675A0DFAF18AE1712020699
:1001D50075A0BFAF18AE1712020675A07FAF18AE97
:0401E50017020206F5
:1001E9007D017C007F011200F97D027C007F0212F3
:0D01F90000F97D037C007F031200F980E314
:0A022C003F065B4F666D7D077F6F94
:0600F9008F088C098D0A3E
:1000FF00780B7C007D007BFF7A02792C7E007F0AD3
:10010F001200D3E508D39408400DD3E50A9409E50E
:10011F000964809480506EE50814B4080050549020
:10012F00013C75F003A4C58325F0C5837302015408
:10013F0002015802015C02016002016402016C02BB
:10014F00017402017CD2A4800ED2A48012D2A480AA
:10015F0016D2A4801AC2A4D2A3D2A28016C2A4D24D
:10016F00A3C2A2800EC2A4C2A3D2A28006C2A4C2FE
:10017F00A3C2A2740B250AF8E6F5807F017E001258
:05018F000206E4F5800A
:010194002248
:03000000020220D9
:0C022000787FE4F6D8FD7581180201E932
:10000300E709F608DFFA8046E709F208DFFA803EDF
:1000130088828C83E709F0A3DFFA8032E309F608CC
:10002300DFFA8078E309F208DFFA807088828C8334
:10003300E309F0A3DFFA806489828A83E0A3F608E8
:10004300DFFA805889828A83E0A3F208DFFA804CC2
:1000530080D280FA80C680D4806980F28033801099
:1000630080A680EA809A80A880DA80E280CA803302
:1000730089828A83ECFAE493A3C8C582C8CCC5837A
:10008300CCF0A3C8C582C8CCC583CCDFE9DEE7804A
:100093000D89828A83E493A3F608DFF9ECFAA9F0C9
:1000A300EDFB2289828A83ECFAE0A3C8C582C8CC1F
:1000B300C583CCF0A3C8C582C8CCC583CCDFEADE38
:1000C300E880DB89828A83E493A3F208DFF980CC9A
:1000D30088F0EF60010E4E60C388F0ED2402B40493
:1000E3000050B9F582EB2402B4040050AF2323453A
:0600F3008223900053730C
:00000001FF
